:020000040800F2
:10400000FFFF0120799F01089D2701089F270108D4
:10401000C1280108D9280108F12801080000000082
:10402000000000000000000000000000D14603086E
:104030000929010800000000714703088D270108C5
:10404000F99F0108F99F0108F99F0108F99F0108EC
:10405000F99F0108F99F010849000108690001085A
:1040600089000108A9000108CD000108A911010873
:10407000F99F0108CD110108F99F0108F99F010876
:10408000694F010841340108F99F0108F99F0108AF
:10409000F99F0108F99F0108F99F0108F50001083F
:1040A000F99F0108F99F0108F99F0108F99F01088C
:1040B000F99F0108F99F0108F99F01089D11010866
:1040C00091110108F99F0108F99F0108F99F010862
:1040D000F99F0108F99F0108A1340108A5300108E2
:1040E000D1010108F99F0108F99F0108F99F010812
:1040F000F99F0108C5FD0008F99F0108F99F010813
:10410000F99F0108F99F0108F99F0108F99F01082B
:10411000F99F0108F99F0108F99F01081D9F0108F7
:1041200049A50008F99F0108F99F0108F99F0108B6
:10413000F99F0108F99F0108F99F0108F99F0108FB
:10414000F99F0108F99F0108F99F010891270108CB
:10415000E1A40008F99F0108253B0108213B010863
:10416000C1110108B5110108F99F0108F99F010863
:10417000F99F0108F99F0108F99F0108F99F0108BB
:08418000F99F0108F99F0108F5
:1041C00038B52DED028BB0EE418AF0EE618A55ECE8
:1041D000104B00F01DF830B9B0EE480AF0EE680A56
:1041E000BDEC028B38BDB0EE480AF0EE680A00F074
:1041F0000FF838B153EC182B2046294603F0B4F9D8
:104200000028E9D0BDEC028B45EC104B38BD00BF57
:1042100051EC100B0B4631F0004106D00F4AA3F5CC
:10422000801C94450DD804207047A0B10C4A13425D
:104230000FD0914201D000207047B0FA80F04009C1
:10424000704703F1FF4C0CF5E00C9445EED80420C8
:104250007047032070470220704700BFFFFFDF7FD9
:104260000000F07F38B510EE105A25F00044B4F18C
:10427000A14FF0EE407A0BDBB4F1FF4F58DCDFEDDD
:10428000517A9FED510A002DC8BFB0EE670A38BDC4
:104290004E4B9C425BDCB4F1445F4CDB4FF0FF3291
:1042A00067EEA76ADFED4A4ADFED4A5A9FED4A5AA8
:1042B0009FED4A4A26EEA67AB0EE666AE7EE245AE9
:1042C000531CDFED474ADFED476AA5EE875AE7EE5C
:1042D000246ADFED455ADFED454AE6EE875AA5EE42
:1042E000074A9FED435ADFED436AA5EE875AE4EE95
:1042F000074ADFED415AE4EE876AE5EE075A66EEBB
:10430000866A25EE877A37D03C4B03EB820376EE44
:10431000876A93ED000A93ED047A96EEA70A002DC2
:1043200070EE677A37EE670AB1DAB1EE400A38BD4F
:1043300030EE000A38BD9FED327A30EE077AF7EEA4
:10434000006AB4EEE67AF1EE10FAA7DD38BD00F0AF
:1043500095F82C4B9C4216DCA3F5D0039C4227DC3D
:10436000F0EE007ABFEE007AA0EE277A002230EE5F
:10437000270AC7EE007A93E776EE876AE6EEE77AD9
:10438000B0EE670A38BD204B9C420BDCF7EE087A92
:10439000B7EE007AA0EE277A022230EE670AC0EE6E
:1043A000077A7DE7BFEE007AC7EE007A032277E74F
:1043B000F7EE007A30EE677A30EE270A0122C7EE78
:1043C000007A6DE7DB0FC93FDB0FC9BFFFFFDF3EA0
:1043D000D769853C59DA4B3D356B883D6E2EBA3D29
:1043E00021A215BD6BF16EBD95879DBD2549123E7D
:1043F000388EE3BDABAAAA3ECDCC4CBE148E0308CA
:10440000CAF24971FFFF973FFFFF1B4010EE103AC1
:10441000184A23F0004393421BDDB3F1FF4F02DB48
:1044200030EE400A704700B583B0684601F0DCFA10
:1044300000F003000128DDED010A9DED000A0CD01B
:10444000022812D070B1012001F0C0FF03B05DF866
:1044500004FBDFED090A01F0FDBB01F0B7FFB1EE8F
:10446000400AF3E701F0F6FBF0E701F0F3FBB1EEF1
:10447000400AEBE7D80F493F0000000010EE103A69
:1044800023F0004300EE103A704700BF10EE102AF0
:10449000C2F3C7537F3B162B22F0004128DC002BD0
:1044A00018DB1A4919410A4221D0DFED197A70EE62
:1044B000277AF5EEC07AF1EE10FA18DD002A04DA58
:1044C0004FF4000040FA03F31A4422EA010300EE1D
:1044D000103A7047DFED0E7A70EE277AF5EEC07A6B
:1044E000F1EE10FA03DD002A08DB9FED0A0A70479F
:1044F000B1F1FF4FFBD330EE000A7047FFEE007AB8
:10450000002918BFB0EE670A704700BFFFFF7F00A9
:10451000CAF249710000000008B52DED028BF0EEE3
:10452000408AB0EE608A00F033F820B9B0EE480A55
:10453000BDEC028B08BDB0EE480A00F029F820B1AE
:10454000F4EEC88AF1EE10FAF0DDB0EE680ABDECC8
:10455000028B08BD08B52DED028BF0EE408AB0EE5F
:10456000608A00F015F820B9B0EE480ABDEC028B65
:1045700008BDB0EE480A00F00BF820B1F4EEC88A8E
:10458000F1EE10FAF0D5B0EE680ABDEC028B08BD72
:1045900010EE103A33F000400ED0A0F50003B3F156
:1045A000FE4F0DD3074B421E9A4207D9A0F1FF40A0
:1045B000B0FA80F04009704702207047032070472E
:1045C00004207047FEFF7F0010EE103A194A23F0D6
:1045D000004393421CDDB3F1FF4F02DB30EE400A93
:1045E000704700B583B0684601F0FEF900F00300A3
:1045F0000128DDED010A9DED000A0ED0022813D03E
:1046000070B101F027FBB1EE400A03B05DF804FB86
:10461000DFED090A002001F0D9BE01F01BFBF4E731
:10462000012001F0D3FEF0E7012001F0CFFEB1EE52
:10463000400AEAE7D80F493F0000000010EE103AA8
:10464000114A23F00043934218DDB3F1FF4F02DB20
:1046500030EE400A704700B583B0684601F0C4F9F7
:10466000400000F00200DDED010A9DED000AC0F1FE
:10467000010001F0F3FE03B05DF804FBDFED030A77
:10468000012001F0EBBE00BFDA0F493F000000003F
:1046900010B582B08DED010A019C24F00043B3F106
:1046A000FF4F0BDB002CF7EE007A29DBB0EE407AEF
:1046B00087EE870A30EE270A02B010BD214A9342E6
:1046C00007DDB7EE000A002CB8BFB1EE400A02B019
:1046D00010BDB3F1105F1BDBB3F17E5F21DBFFF791
:1046E000CDFE30EE000A01F099FFB0EE007A30EE18
:1046F000070AF7EE007AC7EE006A37EEE60AE2E74D
:104700009DED017A87EE870A30EE670A02B010BD90
:10471000DDED017AB7EE000A37EE800A20EE270AB7
:10472000CAE7FFF7ABFEF8EE007A20EE270A01F0A9
:1047300075FFB0EE007A30EE077AF1EE407A87EE40
:10474000870AC0E7FFFFAF4108B52DED028BB0EE41
:10475000408A00F0A1F9144B93F900300133F0EED8
:10476000408A0FD0B4EE488AF1EE10FA0AD6B0EEC5
:10477000480AFFF783FEF7EE007AB4EEE70AF1EE9F
:1047800010FA04DCB0EE680ABDEC028B08BD03F041
:1047900073FABDEC028B034621221A600348BDE880
:1047A000084002F083B800BF00000020C4290408BC
:1047B00008B52DED028BB0EE408A00F091FA144B53
:1047C00093F900300133F0EE408A0FD0B4EE488AFE
:1047D000F1EE10FA0AD6B0EE480AFFF74FFEF7EEF8
:1047E000007AB4EEE70AF1EE10FA04DCB0EE680AE3
:1047F000BDEC028B08BD03F03FFABDEC028B034613
:1048000021221A600348BDE8084002F04FB800BFFB
:1048100000000020C429040800F068BB08B52DED95
:10482000028BB0EE408A00F007FC164B93F9003083
:104830000133F0EE408A12D0B0EE480A02F028F8B8
:1048400068B1DFED117AB4EEE78AF1EE10FA12DC0E
:10485000DFED0E7AB4EEE78AF1EE10FA04D4B0EE92
:10486000680ABDEC028B08BD03F006FA2223DFEDD7
:10487000088A0360F3E703F0FFF92223DFED058ADE
:104880000360ECE7000000208071B142B5F1CFC2B7
:10489000000000000000807F08B52DED028BF0EED7
:1048A000408AB0EE608A00F0B5FC0E4B93F9003000
:1048B00001330BD0F4EE488AF1EE10FA06D6DFEDA4
:1048C0000A8AB4EE688AF1EE10FA02D0BDEC028BCF
:1048D00008BD03F0D1F988EEA80ABDEC028B2123B4
:1048E000036008BD000000200000000008B52DEDA9
:1048F000028BB0EE408A00F01DFD144B93F900309E
:10490000013314D0B4EE488AF1EE10FA0FD6B5EEAA
:10491000C08AF1EE10FA0AD8B5EE408AF1EE10FA2C
:1049200008D103F0A9F922239FED090A0360BDEC29
:10493000028B08BD03F0A0F9BDEC028B03462122D7
:104940001A600448BDE8084001F0B0BF0000002034
:10495000000080FFC429040808B52DED048BF0EE9B
:10496000408AB0EE608A00F045FD474B93F9003075
:104970000133B0EE409A1FD0B4EE488AF1EE10FA3F
:104980001AD6F4EE688AF1EE10FA59D6DFED3F9AA6
:10499000F4EE698AF1EE10FA13D1B4EE698AF1EE01
:1049A00010FA29D0B0EE480A01F072FF20B1B4EE3F
:1049B000E98AF1EE10FA4DD4B0EE490ABDEC048B51
:1049C00008BD01F065FFF0B1B5EE409AF1EE10FAC6
:1049D000F2D1B0EE680A01F05BFF0028ECD0B0EE37
:1049E000480A01F055FF0028E6D003F045F92223DC
:1049F0009FED269A0360DFE7B7EE009AB0EE490A12
:104A0000BDEC048B08BDB0EE680A01F041FF002840
:104A1000DAD0B0EE480A01F03BFF0028D4D0B4EE63
:104A2000499AF1EE10FA28D603F026F9F5EEC08A7D
:104A30002223F1EE10FA036013D49FED159ABBE721
:104A4000B5EE408AF7EE007AF1EE10FA08BFB0EE4C
:104A5000679AB1E703F010F921239FED0E9A0360E6
:104A6000AAE7B0EE480A01F027FFB4EE480AF1EEDB
:104A700010FAE2D09FED079A9EE703F0FDF821239C
:104A800089EEA99A036097E700000020000000006B
:104A90000000807F000080FF08B510EE102A22F091
:104AA0000043B3F17E5F2DED028B12D00ADCB3F12F
:104AB0007C5F19DAB3F10C5F6CDCBDEC028B9FED0F
:104AC000770A08BD70EE407A87EEA70ABDEC028B2C
:104AD00008BDBDEC028B9FED720ADFED727A002AF1
:104AE000D8BFB0EE670A08BD002AC0F29080F7EE8A
:104AF000008A38EEC00AB6EE008A20EE088AB0EED0
:104B0000480A01F0A3F8DFED687A9FED687A9FED1F
:104B1000686ADFED685ADFED686AA8EE277ADFED94
:104B2000677AA7EE086AE8EE257AE6EE086ADFED16
:104B3000645A9FED647AE7EE885AA6EE887ADFED34
:104B4000627A10EE103AE5EE887A23F47F6323F060
:104B50000F03B0EE476A9FED5D7AF0EE676AA6EE4E
:104B6000087A07EE903AB0EE486AE6EE888AA7EE39
:104B7000E76A70EE276A27EE088A86EE267AC8EE84
:104B8000286ABDEC028BA0EE267A37EE870A30EE5B
:104B9000000A08BD20EE007ADFED437A9FED436AFC
:104BA000DFED436A9FED435ADFED435AA7EE276AD4
:104BB000BDEC028BE6EE076ADFED407A9FED406ABE
:104BC000E7EE057AE6EE875AA7EE876A9FED3D5A33
:104BD000DFED3D7ADFED3D6AA5EE875AE6EE077A16
:104BE000E5EE076AF7EE005AE7EE875A26EE877A77
:104BF0009FED376ADFED377AC7EE256AB0EE467A69
:104C0000A0EE667A30EE470A37EEC00A08BDB7EE6E
:104C1000007A30EE070AF6EE007A60EE277ADFEDD2
:104C2000226A9FED226ADFED224ADFED225A9FEDD4
:104C3000225A9FED268AA7EEA66ADFED206AE6EEED
:104C4000274AE7EEA56ADFED1E5A9FED1E6AA4EE25
:104C5000A75AE6EEA75ADFED1C6AA5EE276AE5EE35
:104C6000A76AA6EE278AA6EEA77A28EE278AF0EE94
:104C7000478AB0EE670A00F0E9FF88EE286ADFEDA8
:104C8000167AB0EE407AE7EE067A9FED140A77EED8
:104C9000877AF0EE006AA7EEE60A17E7DB0FC93F56
:104CA00000000000DB0F494008EF1138047F4F3A45
:104CB000461124BD2EC69D3DA80A4E3E613330BF2D
:104CC0002D57014090B0A6BE39D119C0ABAA2A3EDB
:104CD0006821A233DA0FC93F6821A2B3DA0F494035
:104CE00038B510EE105A25F00044B4F17E5F2DED7A
:104CF000048B00F085807ADCB4F17C5F0FDAB4F1CC
:104D0000485F80F29C80DFED697A70EE277AB7EE1B
:104D1000007AF4EEC77AF1EE10FA00F38D80FFF717
:104D2000ADFBF7EE007A37EEC00AB6EE008A20EE51
:104D3000088A9FED5F7ADFED5F6A9FED5F6A9FED06
:104D40005F5ADFED5F5ADFED5F8AE8EE076A9FED9D
:104D50005E7AA8EE067A9FED5D6AA6EE885AA7EE07
:104D6000086A9FED5B7ADFED5B6AE5EE085AA6EE16
:104D7000087AE5EE886AE7EE087AE6EE888AB0EE11
:104D8000480AB0EE679A00F061FF534B9C4268EE10
:104D9000888A42DC10EE103A23F47F6323F00F037D
:104DA00006EE903AA6EEE68A70EE267A88EE895AEA
:104DB000C8EE274A9FED497ADFED497AB0EE006AE6
:104DC000A4EEC67A30EE000AF0EE675AE6EEC65A56
:104DD00090EE057A37EE657A37EEC77A002D0ADC59
:104DE000BDEC048BB1EE477AB0EE470A38BD70EEE9
:104DF000407A87EEA77ABDEC048BB0EE470A38BD47
:104E00009FED367ADFED377A20EE077ABDEC048B22
:104E1000A0EE277AB0EE470A38BD88EE896A9FED8A
:104E2000327ADFED307AA0EE060AF0EE006AA0EEEC
:104E3000267A37EEC77AD1E7B0EE407ADBE760EE4C
:104E4000007A9FED1B7ADFED1B6A9FED1C6ADFED98
:104E50001A5A9FED1B5AE7EE876ABDEC048BA6EE4B
:104E6000A76A9FED197ADFED196AA7EEA57AA6EE7B
:104E7000275AE7EE276ADFED175A9FED156A9FED77
:104E8000117AE5EE275AA6EEA76AA5EEA77AF7EE05
:104E9000006AE6EE276A67EE277AB0EE407A87EE80
:104EA000A66AA0EE067AB0EE470A38BDCAF249718A
:104EB00008EF1138047F4F3A2EC69D3D461124BDA0
:104EC000A80A4E3EABAA2A3E613330BF2D5701409F
:104ED00039D119C090B0A6BE9999793F2EBD3BB388
:104EE000DB0F493FDB0FC93F2EBD3B3310B582B00E
:104EF000CDED010A019B23F00042B2F1FF4FF0EE2D
:104F0000407A30DC10EE100A20F00041B1F1FF4F82
:104F100029DCB3F17E5F42D09C1704F0020444EA1E
:104F2000D07431B37AB3B2F1FF4F40D0B1F1FF4F3B
:104F300029D08A1AB2F1F45F4FEAE25134DA002B39
:104F400042DA3C3140DA9FED340A012C4ED0022C7B
:104F500043D064B19FED317ADFED317A30EE070A4C
:104F600030EE670A03E09DED017A37EE270A02B0C2
:104F700010BD022C10D09FED2B0A032C18BFB0EEF1
:104F8000670A02B010BD9FED280ADFED287A0028DD
:104F9000B8BFB0EE670AEAE79FED210AE7E702B083
:104FA000BDE81040FFF75EB99FED1F0ACDE7B1F1F4
:104FB000FF4F04F1FF3420D0022C26D81C4B03EB0A
:104FC000840494ED030AD2E79DED017A87EE870A07
:104FD000FFF754FAFFF746F9B7E79FED107ADFEDD8
:104FE000107A30EE070A37EEC00AC0E710EE103A2A
:104FF00003F1004300EE103AB9E7022C08D80C4B3D
:1050000003EB840494ED000AB1E79FED030AAEE7D9
:105010009FED080AABE700BF000000002EBDBB33C8
:10502000DB0F4940DB0F49C0DB0FC93FDB0FC9BFB6
:10503000348E0308DB0F493F10EE103A23F0004294
:10504000B2F1FF4F52D84FEAD37100F0938061481C
:1050500083424EDC002BC0F286805F4B9A424DD9D2
:105060005E4B9A4200F299805D4A02EB810292ED1A
:10507000004A92ED027AC1F1010330EE444A5B1A14
:1050800034EE470ADFED577ADFED574A9FED575A66
:105090009FED576ADFED575A60EE006AE6EEA74AC9
:1050A000A4EEA65AA5EE266AE6EE265AB0EE406AAF
:1050B000A5EEE66A002B47D0F0EE006A60EE065AD5
:1050C00036EEC66AF7EE007A85EE860A13F17D0F9A
:1050D00037EE400A30EE440A37EEC00A51DB10EEDC
:1050E000102A02EBC35300EE103A704730EE000A6C
:1050F00070479FED410A20EE000A7047B2F1465F0B
:105100000AD2DFED3D7A70EE277AB7EE007AF4EE40
:10511000C77AF1EE10FA5ADC60EE007A9FED317A30
:10512000DFED315A9FED316ADFED316AE7EE875AE4
:105130009FED307AA7EEA56AE7EE866AB0EE406A88
:10514000A7EEA67AA7EEC76AF0EE007A60EE066ACE
:1051500036EE676AB7EE007AC6EE867A37EEC00A98
:1051600037EE400A7047254B9A427FF676AF9FEDA7
:10517000240A7047DFED227A002918BFB0EE670AD3
:10518000704710EE102A643302EBC353DFED1D7A33
:1051900000EE103A20EE270A7047114B9FED1A7A65
:1051A0009FED1A6ADFED1A6A03EB8103D3ED047AEF
:1051B000E0EE077AB0EE404AFDEEE77AB8EEE77A25
:1051C00017EE903AA7EE464A27EE267A58E730EED9
:1051D000070A70471772B1421872B13E9115853FA8
:1051E0004C8E03084CBB31330EEADDB555B38A381B
:1051F000610B36BBABAA2A3ECAF24971B5F1CF4268
:10520000000000000000800D3BAAB83F8071313FD4
:10521000D1F7173730B583B0CDED010A019D35F0D8
:10522000004041D010EE10EA2EF00043B3F1FF4FE2
:105230003ADAB0F1FF4F37DC83423BDB0EF000443B
:105240003AD01EF0FF4F56D1190200296FF07D02AF
:1052500004DD4900002902F1FF32FADC15F0FF4FAE
:1052600057D101026FF07D0C03D449000CF1FF3CD3
:10527000FBD512F17E0F47DBCEF3160343F4000398
:105280001CF17E0F3ADBC5F3160040F40000B2EBD0
:105290000C0204D117E00FD04B00013A13D0191AB9
:1052A0000029F8DA5B00F8E7DDED017A60EE277A95
:1052B00087EEA70A03B030BD1D4B03EB547393ED8B
:1052C000000A03B030BD181A58BF03461BB9F3E7F4
:1052D0005B000CF1FF3CB3F5000FF9DB1CF17E0F16
:1052E0001CDBA3F500030CF17F0C234343EACC53F2
:1052F00000EE103ADEE7DA157F3AAFE76FF07D0196
:10530000A1EB0C018840C2E76FF07D01891A8B4048
:10531000B6E74FEAE05CACF17F0CAAE76FF07D02E4
:10532000A2EB0C0C43FA0CF3234300EE103AC1E756
:10533000648E030808B510EE103A33F000422DEDEC
:10534000028B2BD0002B32DBB3F1FF4F41DAB3F5E8
:10535000000F35DB0021DA157F3A0A44D10FC1F185
:105360007F0102EBD272C3F3160307EE902A43EAE1
:10537000C15300EE103AB8EEE78A01F06DFBDFEDA5
:10538000177A9FED177A20EE270ADFED167AA8EE3E
:10539000070AA8EE270ABDEC028B08BDBDEC028B04
:1053A0009FED117ADFED117A87EE270A08BDBDEC7B
:1053B000028B70EE407A9FED0D7A87EE870A08BD6A
:1053C000DFED0B7A60EE277A6FF0180117EE903A56
:1053D000C1E7BDEC028B30EE000A08BDD95BDE3EB2
:1053E000DB27543580209A3E000000CC00000000EE
:1053F0000000004C2DE9F04710EE904A34F00048D0
:105400002DED028B15D010EE105A25F00047B7F1A4
:10541000FF4F10EE109A06DDBDEC028BB948BDE8D7
:10542000F04701F043BAB8F1FF4F08DDB7F17E5FF6
:10543000F2D1B7EE000ABDEC028BBDE8F087002D7B
:1054400010EE906AC0F2F4804FF0000AB8F1FF4FFE
:1054500000F00281B8F17E5F00F02881B6F1804F44
:1054600000F03D81B6F17C5F00EE105A40F0018102
:10547000B9F1000F80F23881FFF700F8B7F1FF4F64
:1054800000F00981002F00F00281B7F17E5F00F08B
:10549000F8804FEAD973013B5AEA030200F02A81EF
:1054A000B8F19A4F40F35081974A974240F359829E
:1054B000964A974200F3FF80F7EE007A30EE670AD3
:1054C0009FED936ADFED935AF5EE007AA0EE676ADE
:1054D000F6EE006AE6EE406A20EE007ADFED8E7AA4
:1054E0009FED8E6A27EE267A67EEC77AE0EE257A80
:1054F000F0EE676AE0EE066A16EE902A22F47F620A
:1055000022F00F0207EE102AA0EE467A06EE902A4D
:1055100077EEC77A26F47F6626F00F0607EE104A6C
:1055200006EE106A67EE877A37EE466A07EE106A73
:10553000E6EE267A0AF1FF3A5AEA030326EE877A64
:10554000B7EE000A77EE876ABFEE006A16EE903A71
:105550000CBFB0EE468AB0EE408A002B23F000422A
:1055600040F3B581B2F1864F00F3F48100F0E7819A
:10557000B2F17C5F00F3B7810022104623F47F6311
:1055800023F00F0306EE103ADFED656A9FED655AD2
:105590009FED652A9FED653ADFED653A9FED654A1F
:1055A000DFED654A36EE477AF0EE002A77EEC77AED
:1055B00026EE267ADFED616AA7EEA67AF0EE476A5C
:1055C000E6EE056A66EEA65AF0EE667AA5EE823A37
:1055D000E6EE457AB0EE636AA3EE256A77EE677A67
:1055E000B0EE447AA6EE257AB0EE646AA7EE256A9C
:1055F000B0EE667AA6EE657AE6EEA77A66EE875A90
:1056000037EE626AB7EE005A85EE867A77EE677AF1
:1056100077EEE66A35EE660A10EE103A1344B3F5FB
:10562000000FC0F2B68100EE103A20EE080A02E741
:10563000B8F1974F1ADAB8F17E5F0ADB4FEAE85308
:10564000C3F1960348FA03F202FA03F3434500F06C
:1056500039814FF0000AFDE6B7F17E5F3FF4E9AE15
:105660002FDD002E2ADB00EE104AE4E64FF0020A9E
:10567000ECE6FEF703FFB7F1FF4F02D0002F7FF4F7
:1056800004AF002EBCBFF7EE007A87EE800AB9F1B6
:10569000000FBFF6D0AEA7F17E5757EA0A0340F0DD
:1056A0000A8170EE407A87EEA70AC4E6002E0FDB6F
:1056B00000EE105ABFE6002E00F356819FED200A3F
:1056C000B9E6002EFADA07EE904AB1EE670AB2E6C2
:1056D00007EE105AF7EE007A87EE870AABE607EE80
:1056E000905A27EEA70AA6E6BDEC028BBDE8F0476C
:1056F00000F0ACBA07EE905A77EEE77A87EEA70A89
:1057000099E600BFC4290408F7FF7F3F0700803FE8
:10571000ABAAAA3E70A5EC363BAAB83F00AAB83F98
:105720008CBEBF350072313F4CBB31330EEADDB564
:1057300055B38A38610B36BBABAA2A3E1872313F8B
:10574000000000000000804B19F0FF4F40F0F58092
:105750005FED047A60EE277A6FF0170217EE907A09
:105760008D48F915C7F316077F398742114447F072
:105770007E5240F3DA808948874240F3FA809FEDF9
:10578000885A0131B0EE453AA2F50002F7EE005A10
:10579000002006EE102A76EE257AB7EE007A87EE24
:1057A000270A521042F0005202F58022024476EE9F
:1057B000656A07EE901A66EE803AB8EEE77A13EE65
:1057C000901A07EE902A774ADFED770A9FED778AE5
:1057D0009FED771ADFED772ADFED771A9FED772AB5
:1057E00077EEE55A114004EE901A36EE656A63EEE4
:1057F000A35AE4EEE76AF0EE607AE5EE887AE4EE2A
:10580000C66AA7EEA51A66EE806AE1EE252A73EE57
:10581000A47AE2EEA51A25EEA58AA1EEA52A67EEE6
:10582000A67AB0EE084AB0EE446AE8EE027AA4EE38
:10583000A46ADFED630A9FED631ADFED632A36EE9B
:10584000276A16EE101A114006EE101A76EE445A28
:10585000E4EEE45A77EEE57A67EEA37AE6EE867A2E
:10586000F0EE675AE4EE865A15EE901A114006EEF5
:10587000901AE4EEC66A05EE901A77EEE67A67EEC5
:10588000A07AE5EE817A77EE837AF0EE676AE5EE4C
:10589000A26A76EE856A76EE876A16EE901A114055
:1058A00006EE901A36EEC77A37EE457AA5EEE27A22
:1058B00077EEC77A2EE6BAF1010F7FF4BCADB1EEF8
:1058C000400AB8E502F00102C2F1020AC2E53F490E
:1058D0008A4257DC7FF44CAE76EEC76AF4EEE76A94
:1058E000F1EE10FA4EDAD2154FF400017E3A41FA89
:1058F00002F21A44C2F3C751354C7F390C41C2F34E
:10590000160022EA040206EE902A37EE667A40F488
:105910000000C1F117010841002B77EE876AB8BF7C
:10592000404216EE903AC20528E69FED1D5AF7EE6A
:10593000005AB0EE453A00202BE7002210E79FED19
:10594000256A76EEC76A37EE866AB4EEE66AF1EE4D
:1059500010FAC8DDDFED207A28EE270A20EE270AAC
:1059600069E5002EBFF6AAAE9FED1B0A20EE000AE5
:1059700061E59FED1A5A9FED1A3AF7EE085A4FF477
:10598000001006E7DFED177A28EE270A20EE270A37
:1059900051E500F0EFFF48E671C41C00D6B35D008E
:1059A0000000000000F0FFFF55326C3E42F1533E14
:1059B00005A38B3EABAAAA3EB76DDB3E9A99193F71
:1059C0004F38763FA0C39D360038763F000016431F
:1059D000FFFF7F003CAA3833CAF2497100C0153F6F
:1059E000DCCFD1356042A20D70B510EE103A894A75
:1059F00023F00044944286B0054670DD864A944206
:105A000010EE106A22DC002BDFED847A844A24F049
:105A10000F04B0EE407A40F3E480944270EE677A6F
:105A200009BFDFED806A9FED807A9FED807A77EE87
:105A3000E67A012077EEC76A77EEE67AC5ED006A6E
:105A400077EEC77AC5ED017A06B070BD784A944208
:105A500054DDB4F1FF4F49DAE215863AA4EBC253A4
:105A600007EE903ABDEEE77ADFED726AB8EEC77ADC
:105A700077EEC77A8DED037A67EEA67ABDEEE77A08
:105A8000B8EEC77A77EEC77A8DED047A67EEA67A1C
:105A9000F5EE407AF1EE10FACDED057A40F0908007
:105AA000B5EE407AF1EE10FA14BF022301236249E9
:105AB00001910221009103A8294600F04DF9002E22
:105AC000C2DA95ED007AD5ED017AB1EE477AF1EEC2
:105AD000677A85ED007AC5ED017A4042B4E700228D
:105AE00085ED000A4260002006B070BD70EE407A7D
:105AF0000020C5ED017AC5ED007AA5E7FEF7BEFCF2
:105B00009FED4E7A9FED456AF6EE007AE0EE077A59
:105B10009FED457AFDEEE77A17EE900AF8EEE76A18
:105B20001F28A6EEC60A66EE877AB1EE666A1EDC0C
:105B3000434A411E24F0FF0352F82120934216D01D
:105B400030EE677A85ED007A30EE470A002E30EEAF
:105B5000670A85ED010ABFF677AFB1EE477AB1EE7D
:105B6000400A85ED007A85ED010A40426CE730EE8F
:105B7000677AE21517EE103AC3F3C753C3EBD45458
:105B8000082CDFDDDFED277A9FED287AF0EE405A12
:105B9000E6EE275A30EE650AA6EE270AF0EE407AC6
:105BA000D6EE877A35EEE77A17EE103AC3F3C7538D
:105BB000D21A192A06DCB0EE650A85ED007AC3E731
:105BC000032374E79FED1F7A9FED1F5AB0EE650A1D
:105BD000A6EE070A75EEC07AE6EE077AD6EE857A6B
:105BE000AEE7944270EE277A09BFDFED0E6A9FEDB3
:105BF0000E7A9FED0E7A77EEA67A4FF0FF3077EEB1
:105C0000876A77EEE67AC5ED006A77EE877AC5EDAA
:105C1000017A19E7D80F493FE3CB1640800FC93FFF
:105C2000D00FC93F004435374344353708A3852E8C
:105C3000800F494300008043EC8E030884F9223F23
:105C40006C8E030800A3852E32318D24B1EEC00A7C
:105C5000704700BF10EE103A23F00043B3F1485FE5
:105C60002CDAFDEEC07A17EE903A002B60D020EED1
:105C7000007ADFED317A9FED315ADFED315A9FED39
:105C8000316ADFED316AA7EE275ADFED307AE7EEB1
:105C9000055AA7EE256AE7EE067AE7EE276A67EE71
:105CA000266A60EEC00AF6EE007AE7EE260AB7EE44
:105CB000000AD7EE270A30EE600A704720EE007A1D
:105CC000DFED1D7A9FED1D5ADFED1D5A9FED1D6A18
:105CD000DFED1D6A1E4AA7EE275A9342DFED1B7ABD
:105CE000E5EE075AA5EE876AE6EE077AE7EE876AE1
:105CF00066EE876AD5DD174A934214DC03F17F43D1
:105D000007EE903AB7EE006A36EE676A60EEC00AB8
:105D1000F6EE005AD7EE257AE7EE260A77EEE00A8D
:105D200036EE600A7047B6EE076AF5EE027AEDE7E6
:105D3000B7EE000A704700BF4ED747ADF6740F317B
:105D40007CF293B4010DD037ABAA2A3D610BB6BAF1
:105D50009999993E0000483F2DE9F04F2DED048BB5
:105D6000DBB01C4603930691A24B6899089253F846
:105D70002150111D824604F1FF38C0F2A382D31EC8
:105D800048BF131DDB1002930133DB000793DDE9ED
:105D900007239B1A0593029B15EB0801A3EB08034D
:105DA00016D401319FED947A699819441EAA002BEC
:105DB000A4BF50F8234007EE904A03F10103ACBFA3
:105DC000F8EEE77AF0EE477A8B42E2EC017AEED118
:105DD000002DC0F2E782039B1EAA02EB830446AEAD
:105DE0004FEA830C4046EF180AEB8301B8F1000F2D
:105DF000DFED817A09DB22465346F3EC016A32ED8E
:105E0000017A8B42E6EE877AF7D10130B842E6ECB0
:105E1000017A04F10404E9D109AB0AAF03EB850967
:105E200007EB8503083B9FED769ADFED748A0598B2
:105E300004930AEB0C0446AE00955AAB03EB8503C2
:105E4000002D13ED140A4FEA850B16DD06EB8503D2
:105E50003A4660EE097AB0EE407AFDEEE77A73EDED
:105E6000016AF8EEE77AB342A7EEE87A37EEA60ABF
:105E7000BDEEC77AA2EC017AEBD1019000F07AFD79
:105E8000B0EE408AB4EE000A28EE000AFEF7FEFAF1
:105E9000F2EE007AA0EE678A01980028FDEEC89A1B
:105EA000F8EEE97A38EE678A79DD05F1FF3EC0F158
:105EB000080357F82E1041FA03FC0CFA03F3CB1A2F
:105EC000C0F1070219EE901A43FA02F26144002A67
:105ED00047F82E3009EE901A69DCB5EE408AF1EEF3
:105EE00010FA40F0C080009B05F1FF3B5B4510DCE1
:105EF00005F18043013B07EB83030021944653F8EF
:105F000004294B4541EA0201F9D16246002940F0DB
:105F1000F280009B013B57F82330002B40F0E780D4
:105F2000049B4FF0010C53F804290CF1010C002ADA
:105F3000F9D06B1CAC449E46039A5119029A02EBAD
:105F4000030B0BF1804B699A0BF1FF3B06EB8305CA
:105F50001EAB02EB8B0B03EB8101DBED017A9FEDB6
:105F6000267AF8EEE77AB8F1000F0BF1040BC1EDD9
:105F7000007A0A4601F1040109DB534601E072EDA3
:105F8000017AF3EC016AA342A6EEA77AF7D10EF1EB
:105F9000010EE645A5EC017ADFDD65464DE740F0F0
:105FA0009C806B1E57F823201212002A95DD19EEF3
:105FB000903A002D03F1010309EE903A40F39881E5
:105FC000396800297FD1012D26D03B464FF0010CC6
:105FD00053F8041F00297AD00CF10103C1F5807138
:105FE0009D4247F82C1016DD57F82310BB4407EBF1
:105FF00083030AE0049203080000000000008043CD
:106000000000803B0000C93F1968C1F1FF0143F85F
:10601000041B5B45F8D1012100280CDD012800F0AC
:106020004881022807D105F1FF3C57F82C3003F0D6
:106030003F0347F82C30022A7FF44FAFB7EE000A37
:1060400030EE488A00293FF448AF0992019000F0F1
:1060500091FC38EE408A099A0198B5EE408AF1EE3B
:1060600010FA3FF440AF0292DDE90732B0EE480A81
:10607000981A0195009D00F07DFC1FED207AB4EE8A
:10608000C70AF1EE10FADDE90132C0F259815FED85
:10609000247A059960EE277A0831FDEEE77A0591BA
:1060A000F8EEE77A03F1010BA7EEC70AFDEEE77AF7
:1060B000BDEEC00A10EE101A47F8231017EE903A02
:1060C00047F82B302EE001234FF0000C86E70CF14F
:1060D000010CAC457FF47CAF9EE7F6EE007AB4EE9F
:1060E000E78AF1EE10FA80F2F2800022F5E66B1CEE
:1060F0009E469C4620E70599A1F1080057F82B1011
:1061000005902B46009D69B903F18043023B07EBE4
:106110008303014653F804090BF1FF3B08390028BB
:10612000F8D0059105980092B7EE000A00F022FC25
:10613000BBF1000F009AC0F228814FEA8B0E46ABEC
:1061400003EB0E060EF1040C1FED537A07EB0C0364
:10615000311D73ED017AF8EEE77ABB4267EE807A83
:1061600020EE070A61ED017AF3D1002D1FED5B6A85
:106170004FF0000420DB9348DFED937AB0EE467ACF
:106180003146002303E09C4208DBB0EC017AF1ECDD
:10619000016A01339D42E6EE877AF4DA5AAB03EBEB
:1061A0008403A34543ED287AA6F1040604F1010314
:1061B00005D0002D1C46DEDADFED837AEEE7689924
:1061C00002291CDC002900F395800FD132ABDFEDF2
:1061D0007E7A9C443CED017A634577EE877AF9D16B
:1061E0000AB1F1EE677A069BC3ED007A19EE903A98
:1061F00003F007005BB0BDEC048BBDE8F08F689B3B
:10620000032BF3D1BBF1000F00F0D4800EF5B47373
:106210006B4432A913ED287A01EB8B0373ED017AFD
:10622000F0EE476A37EE277A994277EEC77A83ED28
:10623000007A77EEA67AC3ED017AEFD1BBF1010FB8
:1062400040F3B8800BF1804B0EF5B4730BF1FF3BBC
:106250000DEB030E4FEA8B0B0BF104031EED287AB6
:106260000B4433A873ED017AF0EE476A37EE277AD4
:10627000984277EEC77A83ED007A77EEA67AC3ED7F
:10628000017AEFD10BF1080BDFED4F7A01EB0B0335
:10629000083133ED017A994277EE877AF9D1002AF5
:1062A00056D10699329A339B0A604B60C1ED027A4F
:1062B0009CE705F1FF3C57F82C3003F07F0347F8CB
:1062C0002C30B8E608230793002302935FE519EE0C
:1062D000903A002D03F1010309EE903AC8BF022263
:1062E0003FF76EAEF7EE007A37EEC88A0222F4E589
:1062F000002191E632A9DFED347A01EB830333ED1F
:10630000017A994277EE877AF9D19DED327A8ABB8C
:10631000069BBBF1000FC3ED007A77EE677A0BDDC9
:1063200033A90123B1EC017A01339B4577EE877ADB
:10633000F8DA0AB1F1EE677A069BC3ED017A55E708
:10634000BDEEC00A9B4610EE101A47F82310E9E68E
:10635000DDED326A9DED337A069BF1EE666AB1EEB1
:10636000477AF1EE677AC3ED006A83ED017AC3EDF7
:10637000027A3BE7069BF1EE676ABBF1000F77EE0E
:10638000677AC3ED006ACBDCD4E7689B022B0DDC97
:10639000002B14DC7FF42AAFDFED0B7A002A3FF4E8
:1063A00022AF1EE7039B4FEA830C35E5689B032B66
:1063B0007FF41CAFDFED047A002AC9D171E7DFED6D
:1063C000027AA2E7149203080000000010EE103ACF
:1063D00023F00043B3F1485F04DAFDEEC07A17EE14
:1063E000903A5BB360EE007A9FED157ADFED155AB7
:1063F0009FED156ADFED156AE7EE875A9FED147A77
:10640000A5EEA76A20EE275AE6EE276AA6EEA77A3F
:1064100030B9DFED106AE7EE876AA6EE850A7047AD
:1064200027EE457AF6EE006AA0EEA67ADFED0A6A5C
:10643000D7EE270AE5EE260A30EE600A704700BF65
:10644000D3C92E2F342FD7B21BEF3836010D50B9D8
:106450008988083CABAA2ABEABAA2A3E08B510EE32
:10646000103A23F00042B2F1465FF0EE407A0FDAC4
:10647000BDEEC07A17EE101A01BB431C134300F0A7
:10648000A080012803D0BFEE007A87EE270A08BD5E
:1064900050498A4212DB002BB8BFF1EE407A9FEDE3
:1064A0004E7A9FED4E0AB8BFF1EE600A70EE677A41
:1064B00037EE600ADFED4A0A70EE277A67EEA76AC8
:1064C000DFED484ADFED485A9FED485A9FED486A94
:1064D000404926EEA67A8A42E7EE245AA7EE056ADC
:1064E000DFED444A9FED445AE5EE874AA6EE075A8F
:1064F000DFED425A9FED426AE4EE875AA5EE076A45
:10650000DFED404A9FED405AE5EE874AA6EE075A76
:106510009FED3E6ADFED3E5AA4EE876AE5EE075A2C
:10652000B0EE467AA5EEA67A27EEA65AB0EE606ADD
:10653000A7EE056ADFED374AE6EE260AE5EE240A05
:1065400037EEA00A1FDA0128A1D0BFEE007AC7EE0D
:10655000006A314B10EE102A1A4006EE102A16EE91
:10656000902A76EE677A134000EE103AB7EE007A82
:1065700070EEE70AF0EE477AE6EE007AE0EE807A17
:10658000A7EEA60A08BD07EE100AB8EEC77A60EEBD
:10659000005A30EE070A9B17C5EE806A03F002032B
:1065A000C3F10103B0EE006A76EEE00A00EE103AA5
:1065B00077EEE07AB8EEC00AA7EEC67A20EE070AB8
:1065C00008BDFDF75BFFB7EE007AF0EE407A87EE8C
:1065D000270A08BD40A12C3F68212233DA0F493F2A
:1065E000000000005FAE9BB745F4A3388453D93751
:1065F0007AC09538C8261A3AB937813916696B3B83
:1066000048DEBE3AA427B33C1F37113C8988083EB8
:10661000D10D5D3DABAAAA3E00F0FFFF10EE102A9F
:106620008C4922F000438B422AD9B3F1FF4F7ED828
:1066300000F0D880002AC0F28A80874A934200F294
:10664000F380DFED866A60EE266AF6EE007A77EE7A
:10665000A67A9FED836ADFED836AFDEEE77AB0EEFE
:10666000407A17EE903AF8EEE77AA7EEC67A67EE30
:10667000A66A37EE660A77EE407A77EEE67A07E0AA
:1066800079498B4256D8B3F14C5FC0F08480002327
:10669000B6EE003A20EE034ADFED746A9FED746AAD
:1066A000DFED744A9FED745A20EE047AF7EE003A5B
:1066B000A7EE266ADFED716AE6EE074AB0EE086AD9
:1066C000E4EE876AF1EE085AA6EE875AF0EE636AA6
:1066D000E5EE076AA4EE666AE0EE465A36EEC66A52
:1066E000C6EE256A66EE876A002B4DD076EEE76A25
:1066F0005A1CD6EE807A77EEC77A65D0012B53D03C
:106700005A1C392A33D8162B73DC4FF080721A4189
:10671000C2F17E5277EEC07A00EE102A30EE670AA0
:1067200010EE102A02EBC35300EE103A704730EE21
:10673000000A704752498B427CD8002A9FED487A64
:1067400049DBDFED486A30EE477A012391E7DFED60
:106750004D7A70EE277AF5EEC07AF1EE10FA66D433
:10676000DFED3E6AFEEE007A60EE266A6FE777EEB6
:10677000C07A33EEE70A10EE102A02EBC35300EEA4
:10678000103A30EE630A7047F0EE477AD0EE267A80
:1067900030EE670A7047DFED3C7A70EE277A77EECD
:1067A000E77A30EE670A7047BDEE007AB4EEC70AAA
:1067B000F1EE10FA2FD530EE033AB8EE000A77EE7C
:1067C000C37A27EE800A704770EE677ABEEE000A41
:1067D000A7EE830A7047DFED2D6A30EE077A4FF09F
:1067E000FF3346E7FFEE007A002AB8BFB0EE670A33
:1067F0007047C3F17F02D20507EE102A77EE877A41
:1068000070EE677A37EEA30A10EE102A02EBC3533C
:1068100000EE103A704770EE677AB0EE007AE7EE5D
:10682000873AB0EE630A7047002000F031BABFEE3D
:10683000000A7047DFED097AB6EE007ABEEE006A14
:10684000002A60EE276AB4BFF0EE467AF0EE477A8F
:10685000FDE600BF43B895411772B1423BAAB83F6D
:106860008071313FD1F717371872B13EBBED57B485
:10687000547E8636CD70A6B8898808BD010DD03A01
:106880009115853F6042A20DCAF24971D1F717B741
:1068900082B08DED010A019820F00040B0F1FF4F69
:1068A000ACBF0020012002B0704700BF9FED010A7D
:1068B000704700BF0000C07F10EE101AC1F3C7532D
:1068C000A3F17F02162A21F0004325DC53B3002AEE
:1068D00082B04FEAD17026DB244B1341194219D004
:1068E0004FEA530C11EA530307D04FF4001321EA87
:1068F0000C0113410B4300EE103A1D4B03EB8003D8
:10690000D3ED007A37EE800A8DED010A9DED010A84
:1069100030EE670A02B07047B3F1FF4F02D330EE9A
:10692000000A70477047124AC1F316035B4202EB3C
:1069300080005B0A0A0D03F480031205134307EE7F
:10694000903AD0ED006A36EEA77A01F000418DED65
:10695000017ADDED017A77EEE67A17EE903A23F0D0
:1069600000430B4300EE103AD4E700BFFFFF7F0067
:106970003C92030882B08DED010A019B33F0004286
:106980002AD0B2F1FF4F23D213F0FF4F28D19DED53
:10699000017ADFED2A7A2A4B67EE277A9842CDED0D
:1069A000017A37DB019BC3F3C752193A0244FE2A2E
:1069B0001ADD9FED240A9FED247A019B002BF0EE57
:1069C000407AB8BFB0EE470A20EE270A02B07047FF
:1069D00030EE000A02B070479DED010A02B0704728
:1069E000D20D0244FE2AE4DC002A0BDC12F1160F61
:1069F00017DA4CF250339842DBDC9FED140A9FED1E
:106A0000147ADAE723F0FF4343EAC25300EE103A68
:106A100002B070479FED0D0ADDED017A27EE800A86
:106A2000D8E7193223F0FF4343EAC253DFED097A76
:106A300007EE103A27EE270ACCE700BF0000004C13
:106A4000B03CFFFFCAF24971CAF249F16042A20D9F
:106A50006042A28D0000003310EE103A33F0004285
:106A60002ED0002B33DBB3F1FF4F40DAB3F5000F2C
:106A700034DB4FF0000C6848C3F31601084400F4FF
:106A8000000282F07E520A43DB1500EE102A7F3BA3
:106A9000624A634401F10F0CF7EE007A0CEA02023D
:106AA00030EE670A03EBD05322BBB5EE400AF1EE9D
:106AB00010FA60D1002B40F092809FED590A704788
:106AC0009FED587ADFED567A87EE270A704770EE11
:106AD000407A9FED537A87EE870A7047DFED527A4E
:106AE00060EE277A6FF0180C17EE903AC3E730EE9D
:106AF000000A7047F0EE007A70EE277A07EE103A3F
:106B000080EE274A4948C1F55712084402F522721F
:106B10000243002A9FED463ADFED464ADFED465A32
:106B2000DFED463A9FED465ADFED467ADFED466AE5
:106B300024EE046AF8EEC72A26EE067AE7EE034A48
:106B4000A7EE235AE4EE875AE5EE076AE5EE877A68
:106B500067EE867AE6EE877A2ADDB6EE007A20EED8
:106B6000077A27EE007A4BBB77EE877AA7EEC47AD6
:106B700030EE470A7047B6EE007ADFED346AF0EE89
:106B8000477AE0EE667A20EE007A27EE277A002B2D
:106B9000EED007EE903A9FED2E6ADFED2E6AF8EE0A
:106BA000E77AA7EEC67A37EE400A97EEA60A704754
:106BB00013BB70EE677AA7EEC40A7047DFED246A54
:106BC0009FED246A77EE877A62EEA66AE7EE846A22
:106BD00037EE667A37EE400A92EE860A704707EE85
:106BE000903A9FED1B0A9FED1B7AF8EEE77A27EEAD
:106BF000800AA7EE870A70479FED157ADFED156AC8
:106C000070EE677A27EE627AA7EE847A37EE400A52
:106C100092EEA60A704700BF20FB4A00F0FF7F00FB
:106C200000000000000000CC0000004C305CCFFFF2
:106C30009788173E25333A3E2549923E4FD01C3E59
:106C4000298E633EABAA2A3FCDCCCC3EABAAAA3E4E
:106C5000D1F717378071313F10B582B08DED010A41
:106C6000044601F009F89DED010A046002B010BD70
:106C70009FED050ADFED057A002808BFF0EE407AA7
:106C800027EE800A2220E7E700000070000000F0F5
:106C9000EEE700BF00289FED060AFFEE007AB7EE90
:106CA000007A08BFF0EE477A87EE800A2220D3E709
:106CB0000000000070EE407AB4EE400A87EEA77A3A
:106CC000F1EE10FAB0EE470A01D62120C4E7704772
:106CD00081F0004102E000BF83F0004330B54FEA8D
:106CE00041044FEA430594EA050F08BF90EA020FFA
:106CF0001FBF54EA000C55EA020C7FEA645C7FEA8D
:106D0000655C00F0E2804FEA5454D4EB5555B8BFAF
:106D10006D420CDD2C4480EA020281EA030382EA20
:106D2000000083EA010180EA020281EA0303362DB2
:106D300088BF30BD11F0004F4FEA01314FF4801C85
:106D40004CEA113102D0404261EB410113F0004F97
:106D50004FEA03334CEA133302D0524263EB43034E
:106D600094EA050F00F0A780A4F10104D5F1200EEC
:106D70000DDB02FA0EFC22FA05F2801841F1000147
:106D800003FA0EF2801843FA05F359410EE0A5F11B
:106D900020050EF1200E012A03FA0EFC28BF4CF04C
:106DA000020C43FA05F3C01851EBE37101F0004502
:106DB00007D54FF0000EDCF1000C7EEB00006EEB0F
:106DC0000101B1F5801F1BD3B1F5001F0CD3490899
:106DD0005FEA30004FEA3C0C04F101044FEA4452F0
:106DE00012F5800F80F09A80BCF1004F08BF5FEA77
:106DF000500C50F1000041EB045141EA050130BD57
:106E00005FEA4C0C404141EB0101013C28BFB1F568
:106E1000801FE9D291F0000F04BF01460020B1FAB3
:106E200081F308BF2033A3F10B03B3F120020CDA86
:106E30000C3208DD02F1140CC2F10C0201FA0CF064
:106E400021FA02F10CE002F11402D8BFC2F1200CC9
:106E500001FA02F120FA0CFCDCBF41EA0C0190407F
:106E6000E41AA2BF01EB0451294330BD6FEA0404C8
:106E70001F3C1CDA0C340EDC04F11404C4F12002B3
:106E800020FA04F001FA02F340EA030021FA04F3C5
:106E900045EA030130BDC4F10C04C4F1200220FA1C
:106EA00002F001FA04F340EA0300294630BD21FA5A
:106EB00004F0294630BD94F0000F83F4801306BF20
:106EC00081F480110134013D4EE77FEA645C18BF14
:106ED0007FEA655C29D094EA050F08BF90EA020FAB
:106EE00005D054EA000C04BF1946104630BD91EAA3
:106EF000030F1EBF0021002030BD5FEA545C05D1A6
:106F00004000494128BF41F0004130BD14F58004E4
:106F10003CBF01F5801130BD01F0004545F0FE4158
:106F200041F470014FF0000030BD7FEA645C1ABF8D
:106F3000194610467FEA655C1CBF0B46024650EAC4
:106F4000013406BF52EA033591EA030F41F40021F0
:106F500030BD00BF90F0000F04BF0021704730B576
:106F60004FF4806404F132044FF000054FF000014B
:106F700050E700BF90F0000F04BF0021704730B50C
:106F80004FF4806404F1320410F0004548BF4042E1
:106F90004FF000013EE700BF42004FEAE2014FEA36
:106FA00031014FEA02701FBF12F07F4393F07F4F11
:106FB00081F06051704732F07F4208BF704793F014
:106FC0007F4F04BF41F40021704730B54FF4607427
:106FD00001F0004521F000411CE700BF50EA01022A
:106FE00008BF704730B54FF000050AE050EA0102D3
:106FF00008BF704730B511F0004502D5404261EB43
:1070000041014FF4806404F132045FEA915C3FF483
:10701000D8AE4FF003025FEADC0C18BF03325FEA20
:10702000DC0C18BF033202EBDC02C2F1200300FAD1
:1070300003FC20FA02F001FA03FE40EA0E0021FAF6
:1070400002F11444BDE600BF70B54FF0FF0C4CF4E4
:10705000E06C1CEA11541DBF1CEA135594EA0C0F96
:1070600095EA0C0F00F0DEF82C4481EA030621EAD1
:107070004C5123EA4C5350EA013518BF52EA03350C
:1070800041F4801143F4801338D0A0FB02CE4FF0BE
:107090000005E1FB02E506F00042E0FB03E54FF0EE
:1070A0000006E1FB03569CF0000F18BF4EF0010EE6
:1070B000A4F1FF04B6F5007F64F5407404D25FEAE2
:1070C0004E0E6D4146EB060642EAC62141EA555195
:1070D0004FEAC52040EA5E504FEACE2EB4F1FD0CD7
:1070E00088BFBCF5E06F1ED8BEF1004F08BF5FEA55
:1070F000500E50F1000041EB045170BD06F0004607
:1071000046EA010140EA020081EA0301B4EB5C04B3
:10711000C2BFD4EB0C0541EA045170BD41F48011AB
:107120004FF0000E013C00F3AB8014F1360FDEBFD0
:10713000002001F0004170BDC4F10004203C35DAAC
:107140000C341BDC04F11404C4F1200500FA05F32F
:1071500020FA04F001FA05F240EA020001F00042D0
:1071600021F0004110EBD37021FA04F642EB060146
:107170005EEA430E08BF20EAD37070BDC4F10C0470
:10718000C4F1200500FA04F320FA05F001FA04F234
:1071900040EA020001F0004110EBD37041F1000120
:1071A0005EEA430E08BF20EAD37070BDC4F120052B
:1071B00000FA05F24EEA020E20FA04F301FA05F293
:1071C00043EA020321FA04F001F0004121FA04F23B
:1071D00020EA020000EBD3705EEA430E08BF20EA0B
:1071E000D37070BD94F0000F0FD101F00046400045
:1071F00041EB010111F4801F08BF013CF7D041EAC7
:10720000060195F0000F18BF704703F000465200CA
:1072100043EB030313F4801F08BF013DF7D043EA9B
:107220000603704794EA0C0F0CEA135518BF95EA51
:107230000C0F0CD050EA410618BF52EA4306D1D1D8
:1072400081EA030101F000414FF0000070BD50EAF7
:10725000410606BF1046194652EA430619D094EA81
:107260000C0F02D150EA013613D195EA0C0F05D16B
:1072700052EA03361CBF104619460AD181EA0301BF
:1072800001F0004141F0FE4141F470014FF0000077
:1072900070BD41F0FE4141F4780170BD70B54FF012
:1072A000FF0C4CF4E06C1CEA11541DBF1CEA135592
:1072B00094EA0C0F95EA0C0F00F0A7F8A4EB050474
:1072C00081EA030E52EA03354FEA013100F088806B
:1072D0004FEA03334FF0805545EA131343EA126334
:1072E0004FEA022245EA111545EA10654FEA0026E9
:1072F0000EF000419D4208BF964244F1FD0404F5A2
:10730000407402D25B084FEA3202B61A65EB0305FD
:107310005B084FEA32024FF480104FF4002CB6EBBA
:10732000020E75EB030E22BFB61A754640EA0C003A
:107330005B084FEA3202B6EB020E75EB030E22BF7A
:10734000B61A754640EA5C005B084FEA3202B6EBBB
:10735000020E75EB030E22BFB61A754640EA9C007A
:107360005B084FEA3202B6EB020E75EB030E22BF4A
:10737000B61A754640EADC0055EA060E18D04FEA08
:10738000051545EA16754FEA06164FEAC30343EAA8
:1073900052734FEAC2025FEA1C1CC0D111F4801F75
:1073A0000BD141EA00014FF000004FF0004CB6E76E
:1073B00011F4801F04BF01430020B4F1FD0C88BF0D
:1073C000BCF5E06F3FF6AFAEB5EB030C04BFB6EB18
:1073D000020C5FEA500C50F1000041EB045170BD0B
:1073E0000EF0004E4EEA113114EB5C04C2BFD4EB38
:1073F0000C0541EA045170BD41F480114FF0000EBC
:10740000013C90E645EA060E8DE60CEA135594EA37
:107410000C0F08BF95EA0C0F3FF43BAF94EA0C0F3A
:107420000AD150EA01347FF434AF95EA0C0F7FF4AF
:1074300025AF104619462CE795EA0C0F06D152EA03
:1074400003353FF4FDAE1046194622E750EA4106E7
:1074500018BF52EA43067FF4C5AE50EA41047FF4F8
:107460000DAF52EA43057FF4EBAE12E74FF0FF3C5D
:1074700006E000BF4FF0010C02E000BF4FF0010C2E
:107480004DF804CD4FEA410C7FEA6C5C4FEA430CA7
:1074900018BF7FEA6C5C1BD001B050EA410C0CBFF6
:1074A00052EA430C91EA030F02BF90EA020F002058
:1074B000704710F1000F91EA030F58BF994208BFBF
:1074C00090422CBFD8176FEAE37040F0010070477C
:1074D0004FEA410C7FEA6C5C02D150EA013C07D1D3
:1074E0004FEA430C7FEA6C5CD6D152EA033CD3D01E
:1074F0005DF8040B704700BF8446104662468C4618
:107500001946634600E000BF01B5FFF7B7FF00284A
:1075100048BF10F1000F01BD4DF808EDFFF7F4FF73
:107520000CBF012000205DF808FB00BF4DF808EDFE
:10753000FFF7EAFF34BF012000205DF808FB00BF21
:107540004DF808EDFFF7E0FF94BF012000205DF843
:1075500008FB00BF4DF808EDFFF7CEFF94BF0120F8
:1075600000205DF808FB00BF4DF808EDFFF7C4FFF1
:1075700034BF012000205DF808FB00BF4A0011D293
:1075800012F5001211D20DD56FF47873B3EB62527D
:107590000ED44FEAC12343F0004343EA505323FA89
:1075A00002F070474FF00000704750EA013002D1FE
:1075B0004FF0FF3070474FF0000070474FEA410234
:1075C000B2F1E04324BFB3F5001CDCF1FE5C0DD941
:1075D00001F0004C4FEAC0024CEA5070B2F1004F8B
:1075E00040EB830008BF20F00100704711F0804F8E
:1075F00021D113F13872BCBF01F00040704741F453
:1076000080114FEA5252C2F11802C2F1200C10FA56
:107610000CF320FA02F018BF40F001004FEAC1233A
:107620004FEAD32303FA0CFC40EA0C0023FA02F3DE
:107630004FEA4303CCE77FEA625307D150EA0133B4
:107640001EBF4FF0FE4040F44000704701F0004084
:1076500040F0FE4040F40000704700BF80F0004062
:1076600002E000BF81F0004142001FBF5FEA41031A
:1076700092EA030F7FEA226C7FEA236C6AD04FEA1A
:107680001262D2EB1363C1BFD2184140484041405F
:10769000B8BF5B42192B88BF704710F0004F40F411
:1076A000000020F07F4018BF404211F0004F41F42D
:1076B000000121F07F4118BF494292EA030F3FD0F9
:1076C000A2F1010241FA03FC10EB0C00C3F120030C
:1076D00001FA03F100F0004302D5494260EB40009B
:1076E000B0F5000F13D3B0F1807F06D340084FEA06
:1076F000310102F10102FE2A51D2B1F1004F40EBFB
:10770000C25008BF20F0010040EA03007047490062
:1077100040EB0000013A28BFB0F5000FEDD2B0FAFF
:1077200080FCACF1080CB2EB0C0200FA0CF0AABF22
:1077300000EBC25052421843BCBFD04018437047C0
:1077400092F0000F81F4000106BF80F400000132C6
:10775000013BB5E74FEA41037FEA226C18BF7FEA9D
:10776000236C21D092EA030F04D092F0000F08BFDF
:107770000846704790EA010F1CBF0020704712F0C6
:107780007F4F04D1400028BF40F00040704712F105
:1077900000723CBF00F50000704700F0004343F06A
:1077A000FE4040F4000070477FEA226216BF0846A0
:1077B0007FEA23630146420206BF5FEA412390EA63
:1077C000010F40F4800070474FF0000304E000BF59
:1077D00010F0004348BF40425FEA000C08BF70470A
:1077E00043F0964301464FF000001CE050EA0102CE
:1077F00008BF70474FF000030AE000BF50EA0102E3
:1078000008BF704711F0004302D5404261EB4101CF
:107810005FEA010C02BF84460146002043F0B643F4
:1078200008BFA3F18053A3F50003BCFA8CF2083A19
:10783000A3EBC25310DB01FA02FC634400FA02FC22
:10784000C2F12002BCF1004F20FA02F243EB020029
:1078500008BF20F00100704702F1200201FA02FC8B
:10786000C2F1200250EA4C0021FA02F243EB02007E
:1078700008BF20EADC70704753B94AB9002908BF35
:1078800000281CBF4FF0FF314FF0FF3000F0F2B97D
:10789000ADF1080C6DE904CE00F084F8DDF804E0E9
:1078A000DDE9022304B07047430803F05533C01AE2
:1078B000830803F0333300F03330184400EB10102A
:1078C00000F00F3000EB002000EB0040000E70478E
:1078D00007EE900AF5EEC07AF1EE10FA01D400F04E
:1078E00023B8F1EE677A08B517EE900A00F01CF89D
:1078F000404261EB410108BD38B500220023044637
:107900000D46FFF713FE28B920462946BDE838404A
:1079100000F02AB8204605F1004100F025F8404269
:1079200061EB410138BD00BFD0B5FFF735FB0C4B13
:10793000002206460F46FFF787FBFFF71FFE0446AF
:10794000FFF708FB074B0022FFF77EFB02460B46C2
:1079500030463946FFF7C0F9FFF710FE2146D0BD8B
:107960000000F03D0000F041D0B50C4B002206466F
:107970000F46FFF769FBFFF701FE0446FFF7EAFA3F
:10798000074B0022FFF760FB02460B4630463946A4
:10799000FFF7A2F9FFF7F2FD2146D0BD0000F03D50
:1079A0000000F0412DE9F047089D04468E46002B6B
:1079B0004DD18A42944669D9B2FA82F252B101FAA3
:1079C00002F3C2F1200120FA01F10CFA02FC41EAB3
:1079D000030E94404FEA1C48210CBEFBF8F61FFA38
:1079E0008CF708FB16E341EA034306FB07F19942D3
:1079F0000AD91CEB030306F1FF3080F01F81994286
:107A000040F21C81023E63445B1AA4B2B3FBF8F05F
:107A100008FB103344EA034400FB07F7A7420AD9E6
:107A20001CEB040400F1FF3380F00A81A74240F20E
:107A300007816444023840EA0640E41B00261DB179
:107A4000D4400023C5E900433146BDE8F0878B42AE
:107A500009D9002D00F0EF800026C5E9000130466D
:107A60003146BDE8F087B3FA83F6002E4AD18B4247
:107A700002D3824200F2F980841A61EB03030120F1
:107A80009E46002DE0D0C5E9004EDDE702B9FFDEDD
:107A9000B2FA82F2002A40F09280A1EB0C014FEA88
:107AA0001C471FFA8CFE0126200CB1FBF7F307FBE5
:107AB000131140EA01410EFB03F0884208D91CEB88
:107AC000010103F1FF3802D2884200F2CB80434625
:107AD000091AA4B2B1FBF7F007FB101144EA014404
:107AE0000EFB00FEA64508D91CEB040400F1FF3193
:107AF00002D2A64500F2BB800846A4EB0E0440EA81
:107B000003409CE7C6F12007B34022FA07FC4CEA89
:107B1000030C20FA07F401FA06F31C43F9404FEA7C
:107B20001C4900FA06F3B1FBF9F8200C1FFA8CFE91
:107B300009FB181140EA014108FB0EF0884202FAE5
:107B400006F20BD91CEB010108F1FF3A80F08880A6
:107B5000884240F28580A8F102086144091AA4B263
:107B6000B1FBF9F009FB101144EA014100FB0EFEE4
:107B70008E4508D91CEB010100F1FF346CD28E4513
:107B80006AD90238614440EA0840A0FB0294A1EBA4
:107B90000E01A142C846A64656D353D05DB1B3EB01
:107BA000080261EB0E0101FA07F722FA06F3F14031
:107BB0001F43C5E9007100263146BDE8F087C2F1D8
:107BC0002003D8400CFA02FC21FA03F39140014350
:107BD0004FEA1C471FFA8CFEB3FBF7F007FB103689
:107BE0000B0C43EA064300FB0EF69E4204FA02F435
:107BF00008D91CEB030300F1FF382FD29E422DD988
:107C0000023863449B1B89B2B3FBF7F607FB1633BC
:107C100041EA034106FB0EF38B4208D91CEB01013C
:107C200006F1FF3816D28B4214D9023E6144C91ABC
:107C300046EA004638E72E46284605E70646E3E6CC
:107C40001846F8E64B45A9D2B9EB020864EB0C0ED6
:107C50000138A3E74646EAE7204694E74046D1E7E5
:107C6000D0467BE7023B614432E7304609E7644493
:107C7000023842E7704700BF014B1868704700BFE9
:107C800004000020032A70B515D940EA010C1CF04D
:107C9000030F04460B4621D1194620460E6805689D
:107CA000B54204F1040403F1040317D1043A032A92
:107CB00020461946F0D8541EA2B100F1FF3C01390C
:107CC00001E0C3180CD01CF801EF11F8012F964504
:107CD000A4EB0C03F5D0AEEB020070BD541EECE734
:107CE000184670BD104670BD844641EA000313F08B
:107CF00003036DD1403A41D351F8043B40F8043BB3
:107D000051F8043B40F8043B51F8043B40F8043B75
:107D100051F8043B40F8043B51F8043B40F8043B65
:107D200051F8043B40F8043B51F8043B40F8043B55
:107D300051F8043B40F8043B51F8043B40F8043B45
:107D400051F8043B40F8043B51F8043B40F8043B35
:107D500051F8043B40F8043B51F8043B40F8043B25
:107D600051F8043B40F8043B51F8043B40F8043B15
:107D700051F8043B40F8043B403ABDD2303211D3B5
:107D800051F8043B40F8043B51F8043B40F8043BF5
:107D900051F8043B40F8043B51F8043B40F8043BE5
:107DA000103AEDD20C3205D351F8043B40F8043BB5
:107DB000043AF9D2043208D0D2071CBF11F8013BB3
:107DC00000F8013B01D30B8803806046704700BF79
:107DD000082A13D38B078DD010F003038AD0C3F188
:107DE0000403D21ADB071CBF11F8013B00F8013B6A
:107DF00080D331F8023B20F8023B7BE7043AD9D329
:107E0000013A11F8013B00F8013BF9D20B780370FD
:107E10004B7843708B78837060467047830730B52A
:107E200048D0541E002A3FD0CAB2034601E0013CAC
:107E30003AD303F8012B9D07F9D1032C2DD9CDB2EC
:107E400045EA05250F2C45EA054536D9A4F110026F
:107E500022F00F0C03F1200EE6444FEA121C03F14E
:107E6000100242E9045542E9025510327245F8D138
:107E70000CF1010214F00C0F03EB021204F00F0CD2
:107E800013D0ACF1040323F003030433134442F88A
:107E9000045B9342FBD10CF003042CB1CAB21C4426
:107EA00003F8012B9C42FBD130BD64461346002CE5
:107EB000F4D1F9E703461446BFE71A46A446E0E7C3
:107EC00038B5124B1D68AA6B04461AB10023C2E9EB
:107ED000044338BD18202BF02CFF0246A86378B16C
:107EE00001200021C2E90401094B0A480A499160B6
:107EF000C2E900030B2393810023C2E9044338BD88
:107F0000064B0748422100F0CFFC00BF04000020D0
:107F100034126DE60E33CDABECDE050038290408D3
:107F2000502904081C4B10B51C68A26B8AB1136958
:107F30001A4954691A4803FB01F100FB0411A3FB21
:107F40000030013341EB0001C2E9043121F000406F
:107F500010BD18202BF0EDFE0246A06388B1114C35
:107F6000114B0E48114991609FED097BC2E9004316
:107F70000B2393810E4B014682ED047BC2E9043151
:107F800010BD0C4B0C484E2100F08EFCAFF300806E
:107F90000100000000000000040000202DF45158F2
:107FA0002D7F954C0E33CDAB34126DE6ECDE050023
:107FB0002E7F954C3829040850290408830710B5F2
:107FC000044610D10268A2F1013323EA020313F040
:107FD000803F08D150F8042FA2F1013323EA0203B5
:107FE00013F0803FF6D003781BB110F8013F002B4F
:107FF000FBD100F0E3F9204610BD00BF11F0FF01F6
:10800000034644D0820732D110B5046841EA012EFC
:108010004EEA0E4E8EEA0402A2F1013323EA020375
:10802000A4F1013222EA0402134313F0803F0FD17E
:1080300050F8044F84EA0E0CA4F10133ACF1013284
:1080400023EA040322EA0C02134313F0803FEFD02B
:10805000037823B936E010F8013F002B32D0994263
:10806000F9D110BD8A4211D09A071846CCD01846D3
:1080700013F8012B002AF5D11046704799071846CE
:1080800007D0184601330278002AF7D170478207DB
:10809000F7D10268A2F1013323EA020313F0803F13
:1080A00008D150F8042FA2F1013323EA020313F0A0
:1080B000803FF6D00378002BE8D010F8013F002B6A
:1080C000FBD17047184610BD000000000000000002
:1080D00000000000000000000000000000000000A0
:1080E000A2EB0300704700BF02780B78012A28BF7B
:1080F0009A42F5D16DE9044540EA0104CDE90267F1
:108100006FF0000C4FEA447212B380EA010414F0DD
:10811000070F6AD100F0070420F0070004F0030500
:1081200021F007014FEAC505F0E8042314F0040F1D
:10813000F1E804670CFA05F462EA040266EA040650
:108140000AD063EA0403624667EA0407664603E06E
:10815000F0E80423F1E8046782FA4CF582EA0604A9
:10816000A4FA8CF46CBB83FA4CF583EA0705A5FAF4
:108170008CF595B950E9022351E9026782FA4CF572
:1081800082EA0604A4FA8CF483FA4CF583EA070524
:10819000A5FA8CF52543DBD09CB92DBAB5FA85F448
:1081A00024F0070427FA04F1DDE9026723FA04F357
:1081B00003F0FF0001F0FF01FDE80445A0EB010022
:1081C000704724BAB4FA84F424F0070426FA04F1C0
:1081D000DDE9026722FA04F202F0FF0001F0FF017C
:1081E000FDE80445A0EB0100704714F0030F3CD1FB
:1081F00010F0030428D150F8082B51F8083B82FAFC
:108200004CF582EA0305A5FA8CF55DB950F8042C0B
:1082100051F8043C82FA4CF582EA0305A5FA8CF584
:10822000002DE8D02DBAB5FA85F424F0070423FA1E
:1082300004F122FA04F202F0FF0001F0FF01FDE870
:108240000445A0EB010070474FEAC40420F003008E
:1082500050F8082B21F0030151F8083B0CFA04F404
:1082600062EA040263EA0403C9E710F003041AD0C7
:10827000A1EB040120F00300E40750F8042B06D022
:108280000FD28B785FFAA2F4E41A06D12BB1CB7827
:108290005FFAB2F4E41A00D11BB920465DF8104B26
:1082A000704701F1040150F8042BCC0721F00301C1
:1082B00051F8043B48D824D222F07F4482FA4CF58E
:1082C00094EA1325A5FA8CF50AD165B951F8043B57
:1082D00084EA0204B4EB036F0ED150F8042BEBE7F1
:1082E0004FEA132355E035F07F454DD10878FDE87E
:1082F0000445C0F1000070474FEA126203F0FF032B
:1083000047E002EA1C4482FA4CF594EA1345A5FAC8
:108310008CF50AD165B951F8043B84EA0204B4EB48
:10832000034F0CD150F8042BEBE74FEA134330E036
:1083300015EA1C4528D10B884FEA124229E04FEA82
:10834000124203EA1C4324E002F0FF0482FA4CF5D7
:1083500094EA1365A5FA8CF50AD165B951F8043B86
:1083600084EA0204B4EB032F09D150F8042BEBE7A5
:108370004FEA13630DE015F0FF0F05D10B684FEACC
:10838000122223F07F4304E04FF00000FDE8044593
:10839000704712BA1BBA82FA4CF482EA0304A4FAB8
:1083A0008CF5B5FA85F402FA04F203FA04F34FEA05
:1083B0001260FDE80445A0EB1360704780EA0102FB
:1083C000844612F0030F4FD111F0030F32D14DF854
:1083D000044D11F0040F51F8043B0BD0A3F101320E
:1083E0009A4312F0803F04BF4CF8043B51F8043B21
:1083F00016D100BF51F8044BA3F101329A4312F099
:10840000803FA4F101320BD14CF8043BA24312F09F
:10841000803F04BF51F8043B4CF8044BEAD023469C
:108420000CF8013B13F0FF0F4FEA3323F8D15DF84E
:10843000044B704711F0010F06D011F8012B0CF816
:10844000012B002A08BF704711F0020FBFD031F88E
:10845000022B12F0FF0F16BF2CF8022B8CF8002015
:1084600012F47F4FB3D1704711F8012B0CF8012B98
:10847000002AF9D1704700BF000000000000000092
:1084800090F800F06DE9024520F007016FF0000C54
:1084900010F0070491F820F040F049804FF00004FC
:1084A0006FF00700D1E9002391F840F000F10800D7
:1084B00082FA4CF2A4FA8CF283FA4CF3A2FA8CF30F
:1084C0004BBBD1E9022382FA4CF200F10800A4FA76
:1084D0008CF283FA4CF3A2FA8CF3E3B9D1E90423CA
:1084E00082FA4CF200F10800A4FA8CF283FA4CF301
:1084F000A2FA8CF37BB9D1E9062301F1200182FABB
:108500004CF200F10800A4FA8CF283FA4CF3A2FAC0
:108510008CF3002BC6D0002A04BF04301A4612BACE
:10852000B2FA82F2FDE8024500EBD2007047D1E9D1
:10853000002304F00305C4F100004FEAC50514F060
:10854000040F91F840F00CFA05F562EA05021CBF31
:1085500063EA050362464FF00004A9E7A2B330B511
:1085600040EA0104A40784460B462AD09CF8000088
:108570000C7884422FD1012A0DD0E64660B11EF856
:10858000010F11F8014F6FEA0E03A042134422D1EC
:108590001CEB0303F2D1002030BD0468194653F8E8
:1085A000045BA4F1013EAC4284462EEA040E00F1C5
:1085B00004000BD1043A84461946ECD01EF0803FEB
:1085C000E9D1032AE9D8D1E7104670479CF80000AA
:1085D0000C78A042D1D0001B30BD00BF30B540EABE
:1085E0000104A30701D1032A0FD8844601F1FF3EFD
:1085F00007E01EF8011F03F8011B541EC1B19C4681
:1086000022466346002AF4D130BD0B468446194603
:1086100053F8045BA5F1013424EA050414F0803F0B
:10862000E4D1043A032A4CF8045B1946EFD8DDE79D
:108630006244002CE8D003F8011B9342FBD130BD0B
:10864000194B70B51D68AA6D04460E4632B131460D
:1086500020460123BDE8704000F02CB850202BF0DC
:1086600068FB0246A865D0B100230377C0E9003358
:10867000C0E90233C0E90433C0E90A33C0E90C336E
:10868000C0E90E33C0E91033C0E91233836143629D
:10869000314620460123BDE8704000F00BB8034B83
:1086A0000348572100F000F904000020382904088D
:1086B00084290408F0B4074610B33E468C4616F8E9
:1086C000010B01E0A04216D01CF8014B002CF9D19F
:1086D000D8B116F8015B0C4601E0002BF9D014F874
:1086E000013B9D42F9D14DB1002306F8013C1660D3
:1086F0003846F0BC70475BB13746DEE72E46F6E7FA
:108700001768002FD9D13846F3E7F0BC10607047E6
:10871000166038463B70ECE70123FFF7CBBF00BF84
:108720002DE9F04F814645488E4675461EF801CB2F
:1087300010F80C4014F00804F7D1BCF12D0FE346FB
:1087400054D0BCF12B0F08BF9EF800B06FF000486A
:1087500008BF05F1020E1BB1102B4FD01F4604E0DD
:10876000BBF1300F55D00A231F460025B8FBF7F6A2
:10877000284607FB168A07E0864215D329D007FB57
:1087800000C001251EF801BBABF1300CBCF1090F94
:1087900006D9ABF1410CBCF1190F08D8ABF1370C7D
:1087A00063450DDD002DE7DA4FF0FF35EAE7ABF169
:1087B000610CBCF1190F03D8ABF1570C6345F1DC28
:1087C000002D0BDB04B140420AB195BB1160BDE83E
:1087D000F08FE245D3DA4FF0FF35D3E72223C9F813
:1087E00000301AB30EF1FF314046EFE79EF800B0BB
:1087F0004FF0004805F1020E0124ACE7BBF1300F49
:10880000ACD19EF8000000F0DF00582807D01F46CA
:10881000ABE79EF8003003F0DF03582B0BD1102795
:108820009EF801B03B460EF1020E9EE74046BDE8C1
:10883000F08F8046D6E708231F4696E74592030847
:10884000012B02D0242B00D86AE710B5FFF714FAE9
:1088500016230360002010BD012A08D0242A06D860
:1088600084460648134600680A46614658E710B534
:10887000FFF702FA16230360002010BD0400002059
:10888000012A08D0242A06D88446064813460068E0
:108890000A46614644E710B5FFF7EEF91623036078
:1088A000002010BD0400002000B50B4C25681446C4
:1088B000EE681A4685B003460D464CB1074900954F
:1088C000CDE901143046064900F022F82BF030FAC9
:1088D00004490C46F3E700BF04000020B82904084F
:1088E000C8290408C429040808B513460022FFF764
:1088F000DBFF00BF0CB400B583B004AB53F8042B0E
:10890000019300F05DF803B05DF804EB02B070472E
:108910000EB410B583B005AB064C53F8042B01938D
:108920000146206800F04CF803B0BDE8104003B0E9
:10893000704700BF040000209368013B002B936048
:1089400011DA10B49469A34209DB0A2907D013682D
:10895000581C1060197008465DF8044B70475DF8AC
:10896000044B00F06BBB1368581C1060197008466C
:10897000704700BF9BB1F8B5134406460F46541E1E
:108980005D1E01E0AC4208D014F8011F3A463046A3
:10899000FFF7D2FF431CF5D1F8BD0020F8BD002041
:1089A000704700BF936810B5144613B9536018465A
:1089B00010BD00F039FE0023C4E9013310BD00BF33
:1089C0002DE9F04F88469FB015461C46814618B1E8
:1089D0008369002B00F0A280924B984500F0A480A0
:1089E000914B984500F0B180904B984508BFD9F85D
:1089F0000C80B8F80C30180740F19D80D8F8103082
:108A0000002B00F0988000230B932978884E059462
:108A100020238DF8313030238DF8323001270029A2
:108A200074D02C460B4604E014F8013F002B00F0F4
:108A30008F80252BF8D1B4EB050B40F08C80237888
:108A4000002B63D000234FF0FF32CDE907230693BC
:108A500009938DF85B301C93013404E0069A07FA01
:108A600003F3134306932546052214F8011B3046F1
:108A700001F026F8831B0028F0D1069BD90644BFDD
:108A800020228DF85B2029781A0744BF2B228DF80D
:108A90005B202A2970D1059A1168043200290592B9
:108AA000C0F29B800991697801352E2976D0614CFE
:108AB0000322204601F004F838B1069B001B402435
:108AC00004FA00F003430693013515F8011B5A48D8
:108AD0008DF83010062200F0F3FF002800F08380AC
:108AE000564B002B6DD005AA0092554B424606A965
:108AF0004846AFF300800390039B013306D00B9BE5
:108B0000039A297813440B9300298AD1B8F80C30C2
:108B10005B0617D40B981FB0BDE8F08F00F064FD22
:108B2000404B98457FF45CAFD9F80480B8F80C301E
:108B300018073FF563AF4146484600F0E3FA0028C6
:108B40003FF461AF4FF0FF30E5E7D9F8088050E718
:108B5000B4EB050BDAD0AA46C5F1010503E0934555
:108B600036D91AF8011F42464846FFF7E5FE0130A4
:108B700005EB0A02F3D1C9E7A1F13002092A94D822
:108B8000099B15F8011F03EB830302EB4303A1F1DB
:108B90003002092AF5D92E29099388D169782A2922
:108BA0002BD1059BA9781A6807920433002A05F196
:108BB00002000593B8BF4FF0FF330546B8BF0793D7
:108BC00075E7059B073323F007030833059396E702
:108BD0000B9A23785A440B9232E7494243F002033E
:108BE000099106935FE705AA0092154B424606A934
:108BF000484600F0CBF803907EE7A1F13002002355
:108C0000092A079305F101053FF651AF15F8011F39
:108C100003EB830302EB4303A1F13002092AF5D9E8
:108C2000079344E78C9303086C9303084C93030861
:108C3000F8290408002A0408042A04080000000097
:108C40007589000810B4054C8446134620685DF809
:108C5000044B0A466146FFF7B3BE00BF0400002084
:108C60002DE9F84F92461F460A698B68DDF8289077
:108C70009A42B8BF1A46CAF8002091F843300C4611
:108C8000064613B10132CAF80020226891065DD56C
:108C9000DAF800300233CAF80030226812F0060F0A
:108CA00011461ED1E168CB1A002BD8BF114618DD42
:108CB00004F1190B4FF0000805E0E568DAF8003020
:108CC000ED1A45450CDD01235A4639463046C84762
:108CD000013008F10108F0D14FF0FF30BDE8F88F06
:108CE000216894F84330003B18BF01238A060AD557
:108CF000E1185A1C302081F84300224494F84510B2
:108D000082F84310023304F1430239463046C84723
:108D10000130E1D0236803F00603042B1DD0A368C3
:108D20002269934225DD4FF000089B1A98441A34BB
:108D3000002501E045451CDA01232246394630462C
:108D4000C847013005F10105F4D1C5E712F0060F5F
:108D500012D0003B18BF0123D5E7DAF80030E168F4
:108D60002269C91AA368934221EAE178DDDC00296F
:108D7000DDDC0020BDE8F88FE168DAF80030CB1ABE
:108D8000002BD8BF114693DCABE700BF2DE9F047BD
:108D90000C4684B09046227E0C990746994604F111
:108DA0004300002A33D0A2F15803DDB2202D67D84A
:108DB000202B65D8DFE813F0DE0064006400640057
:108DC0006400640064006400640064006400A30044
:108DD0006E0064006400640064006E00640064005F
:108DE0006400640021007F00C00064006400AE00E5
:108DF00064007F0064006400E50023681A0640F107
:108E000004810B6862691D1D0D601B681A600023D8
:108E100082462361CDF80090434603AA2146384696
:108E2000FFF71EFF013020D02369524641463846E5
:108E3000C847013019D02368E068039E9B0719D505
:108E4000831B002B16DD04F1190A002504E0E068FD
:108E5000039E831BAB420DDD01235246414638463B
:108E6000C847013005F10105F1D14FF0FF3004B0E2
:108E7000BDE8F087B042B8BF304604B0BDE8F08727
:108E8000012384F84220236104F1420A002384F87C
:108E90004330BFE723681A0602D45E0600F1C180A2
:108EA0000D682A6804350D601546002A6BDBDFF873
:108EB00084C10A2610E023681D0640F19C800B68DF
:108EC0001D1D0D601D68DFF86CC16F2A0CBF0826E0
:108ED0000A26002384F843306268A260002A7FDB00
:108EE000236823F004032360002D5BD1002A79D18D
:108EF0008246082E65D0A0EB0A0020618AE70B6845
:108F00000122186804330B6004F1420A84F842001D
:108F10002261BBE70B686268181D0860D3F800A0E7
:108F20000021504600F0CCFD002800F08180A0EB2D
:108F30000A0060602061A9E7236843F020032360F2
:108F40007822DFF8F4C084F845200A68151D0D600A
:108F50001D0643D4590641D51588DE0744BF43F0AA
:108F600020032360002D44D1236823F020032360D5
:108F70001026AEE7582384F84530DFF8B8C02368E0
:108F8000E3E72368DCE76268A2602D21002AC5F1CF
:108F9000000584F8431002DB23F004032360DFF8AC
:108FA00094C00A268246B5FBF6F306FB13512A4607
:108FB0001CF801100AF8011DB2421D46F3D2082E1A
:108FC00099D12368D90796D5626823699A4292DCC1
:108FD00030230AF8013C0AF1FF3A8CE71568BCE738
:108FE000002DDFD19CF8003084F8423004F1420AB1
:108FF0007FE710266DE713F0400F0B6803F10405BF
:109000000D600CBF1D681D885DE713F0400F0B68F5
:10901000626903F104050D601B6814BF1A801A60B1
:10902000F5E60A68B2F9005004320A602A463CE7C5
:1090300060687FE70C2A0408202A0408F8B50D466A
:109040001446064608B1836943B3254B9C422AD097
:10905000244B9C4229D0244B9C4208BFF468A3892E
:10906000A269A2601A0722D5236903B32268616945
:10907000D31AEDB299422F4629DD0133A168013997
:10908000A160511C2160157062699A4216D0A389B3
:10909000DB0701D50A2D11D03846F8BD00F0A4FA3F
:1090A0000F4B9C42D4D17468D9E7B468D7E7214606
:1090B000304600F027F838B92369D7E72146304613
:1090C00000F02CF90028E7D04FF0FF37E4E7214605
:1090D000304600F023F90028F6D122680123CDE7BD
:1090E0008C9303086C9303084C93030810B4044C4E
:1090F00003460A4620685DF8044B1946FFF79EBFF9
:10910000040000203C4B70B51D6806460C460DB1AE
:10911000AB69E3B1394B9C421FD0394B9C424DD0D7
:10912000384B9C4208BFEC68B4F90C3018079AB26F
:1091300019D5216911B312F001002FD00020A060D1
:1091400060694042A06100292ED0002070BD2846F1
:1091500000F04AFA294B9C42DFD16C68B4F90C301C
:1091600018079AB2E5D4D1063ED5520728D4216912
:1091700043F00803A3819AB20029DCD102F42070E5
:10918000B0F5007FD7D02146304600F009FCB4F995
:109190000C3021699AB212F00100CFD1950758BF67
:1091A0006069A0600029D0D1120658BF0846CDD50D
:1091B00043F04003A3814FF0FF3070BDAC68B3E7CC
:1091C000616B51B104F14402914204D0304600F089
:1091D00043FDB4F90C300022626321690022C4E926
:1091E000001223F02403C3E7092243F04003326056
:1091F0004FF0FF30A38170BD040000208C93030862
:109200006C9303084C9303088B891A072DE9F041EE
:109210000C4680463FD44A68002A58DDE66A002E94
:1092200052D00022D8F80050C8F8002013F4805221
:1092300051D10123216A4046B047431C5ED0A38927
:10924000E66A5F0705D56368C01A636B0BB1236CD0
:10925000C01A216A024600234046B047411C3CD157
:10926000D8F80030002B38D01D2B01D0162B4DD153
:1092700023690022C4E90032616BC8F8005019B3B9
:1092800004F14403994202D0404600F0E5FC00207E
:109290006063BDE8F0810E69B6B10D680E609A0793
:1092A0000CBF4B690023AD1B8B600BE02B46324695
:1092B000216AA76A4046B847B0F1000CA5EB0C053F
:1092C000664413DD002DF1DC0020BDE8F0810A6C5E
:1092D000002AA3DCF8E7606DB3E70023636023692D
:1092E0002360A389DB04C7D56065C5E7A38943F084
:1092F00040034FF0FF30A381BDE8F081D8F8003083
:10930000002B9CD01D2B06D0162B04D0A38943F034
:109310004003A381D9E7C8F80050D5E738B50B69F9
:10932000BBB10D46044608B18369B3B10D4B9D42F4
:1093300011D00D4B9D4213D00C4B9D4208BFE568E8
:10934000B5F90C302BB129462046BDE83840FFF76F
:109350005BBF002038BD6568F2E700F045F9E5E73E
:10936000A568EDE78C9303086C9303084C930308FE
:1093700038B540B303690446E3B1174B1D680DB11E
:10938000AB69CBB1154B9C420FD0154B9C4221D001
:10939000144B9C4208BFEC68B4F90C3053B1214621
:1093A0002846BDE83840FFF72FBF6C68B4F90C3091
:1093B000002BF4D1002038BD284600F015F9074BEA
:1093C0009C42E2D1F1E7084B08491868BDE83840F3
:1093D00000F0C2BAAC68DFE7040000208C930308F9
:1093E0006C9303084C930308489303081D930008EB
:1093F00000207047014900F0AFBA00BF1D9300087C
:109400000020704770B568224D1E02FB05F50E4620
:1094100005F1740100F082FC044640B100210C30DB
:10942000C4E90016A06005F16802FEF7F7FC2046CB
:1094300070BD00BF274B2DE9F0411E68B369074698
:1094400053B348364FF00408D6E90134013B04D544
:109450001EE05A1C04F168041AD0B4F90C50013B08
:10946000002DF6D11C4B6566C4E90055C4E90253D2
:10947000C4E90455A5610822294604F15C00FEF701
:10948000CDFCC4E90D55C4E912552046BDE8F08174
:1094900035682DB12E46D7E7304600F01FF8D0E7EB
:1094A0004FF4D671384600F039FC044668B10560C7
:1094B000C0F804800C302946A06025464FF4D072D5
:1094C000FEF7ACFC34602E46BEE70C2330603B60F8
:1094D000DBE700BF489303080100FFFF2DE9F84FC9
:1094E000344B35491A68816290424FF00003C0E95D
:1094F0001233036504BF012383610546FFF79AFF1A
:1095000068602846FFF796FFA8602846FFF792FF9D
:109510006F68E86000240423C7E90243082221465B
:10952000C7E90044C7E904447C66BC6107F15C00FC
:10953000FEF774FCDFF88CB0AE68DFF88CA0DFF8C3
:109540008C90DFF88C801D4BC7F828A0C7E9087BFA
:10955000C7F82C90C7F830800822F360C6E90044B1
:10956000C6E904447466B460B461214606F15C0047
:10957000FEF754FCC6E9086BC6E90AA9C6F83080B4
:10958000EE680F4BF360C6E90044C6E90444746614
:10959000B460B4612146082206F15C00FEF73EFC8F
:1095A0000123C6E9086BC6E90B98C6F828A0AB6191
:1095B000BDE8F88F48930308F593000809000100FF
:1095C00012000200459E00086D9E0008AD9E000836
:1095D000CD9E0008024B0349186800F0BDB900BFDA
:1095E000489303081D930008836903B976E7704721
:1095F000704700BF704700BF704700BF704700BF93
:10960000024B0349186800F087B900BF040000202E
:10961000F1930008024B0349186800F07DB900BFC0
:1096200004000020019400089368002B00F085805E
:109630002DE9F04FB1F90C300C461907804683B084
:10964000174698B225D523691BB310F002033D6875
:109650002DD04FF0000ADFF8BCB25646B9465E4541
:109660003346524628BF5B464046002E52D0216A00
:10967000A76AB847002856DDD9F808301B1A82447B
:10968000361AC9F80830002BE9D1002003B0BDE834
:10969000F08F21464046FFF735FD002840F0368127
:1096A000B4F90C303D6898B210F00203D1D110F03B
:1096B000010944D14E46009746B38205D4F808B05C
:1096C00040F18380B3455A4600F2B28010F4906FA7
:1096D00040F0BF8020680192494600F041FAA3683B
:1096E000019AA3EB0B012368A1601344B2462360E7
:1096F0000026009B9868A0EB0A00D14498600028DF
:10970000C3D0B4F90C0080B2002ED6D1D5E90096B2
:109710000835D1E7D5E900A60835A0E7214640463F
:10972000FFF7FCFD80B3B4F90C3043F040034FF079
:10973000FF30A38103B0BDE8F08F002070471E46C4
:10974000AA46994618461D46009756B388B34A461E
:10975000D4E904132068B24228BF3246884205D9B2
:10976000A16803EB010B5A4500F3A680934263DC2A
:10977000216AA76A2A464046B847B0F1000BD2DDFD
:10978000B9EB0B09CAD00120009A9368A3EB0B0335
:109790005D44A6EB0B069360002B3FF476AF002EE2
:1097A000D4D10AF1080353E902569A460833002E31
:1097B000F9D032460A21284600F082F9002800F04C
:1097C0009C800130A0EB0509C1E72068236998421D
:1097D00016D86369B34213D86FF00042B24228BF73
:1097E0003246216A92FBF3F2A76A02FB03F340467A
:1097F0004A46B847B0F1000A95DDA6EB0A0678E7BD
:10980000B345DA4628BFB2465246494600F0A8F9A9
:10981000A3682268A3EB0A035244A3602260002BD2
:10982000EBD121464046FFF779FD0028E5D07AE7E5
:109830002068B34632464EE72946019200F090F97F
:10984000019AA3689B1AA36023681344236093467C
:1098500096E723682169A3EB010B636903EB430AD5
:109860000AEBDA7A0BF101034FEA6A0A33445345F3
:10987000524684BF9A46524643052CD5114640466F
:1098800000F04CFA00283BD05A4621690190FEF7BF
:109890002BFAA289019B22F4906242F08002A281FD
:1098A00003EB0B002361AAEB0B03C4F814A0A36025
:1098B0002060B34632460EE729465A4600F050F97A
:1098C00023685B44236021464046FFF727FD0028BC
:1098D0003FF456AF27E7404600F07AFA03460028E7
:1098E000DED12169404600F0B7F9B4F90C300C2202
:1098F00023F08003C8F8002017E7721C914627E781
:109900000C22B4F90C30C8F800200EE74FF0FF30FD
:10991000BCE600BF00FCFF7F2DE9F041884600F166
:1099200048070026D7E90154013D0FD4A389012B34
:1099300005F1FF3506D9B4F90E300133204601D0C8
:10994000C04706436B1C04F16804EFD13F68002F49
:10995000E8D13046BDE8F0812DE9F8430746884656
:1099600000F148064FF00009D6E90154013D11D439
:10997000A389012B05F1FF3508D9B4F90E30013365
:10998000214603D03846C04749EA00096B1C04F160
:109990006804EDD13668002EE6D14846BDE8F8836C
:1099A000F0B58B890C46990797B007D504F14703AA
:1099B0000122C4E90432236017B0F0BDB4F90E10DF
:1099C000002905462DDB6A4600F0ACFA002827DBAB
:1099D000019E06F470464FF48067A6F50056B6FA6D
:1099E00086F639462846760900F098F930B3A389FF
:1099F0001A4AAA6243F08003C4E90407A3812060E5
:109A0000002ED9D0B4F90E10284600F0A1FA002893
:109A1000D2D0A38923F0030343F00103A381CBE752
:109A2000A38913F0800F14BF40274FF48067394695
:109A30002846002600F072F90028D8D1B4F90C307D
:109A40009A05B9D423F0030304F1470243F002035B
:109A50000121C4E90421A3812260ADE7F593000848
:109A600070B50C46B1F90E10002996B016461D4689
:109A700013DB6A4600F056FA00280EDB019901F468
:109A80007041A1F50051B1FA81F14FF480634909A9
:109A900000202960336016B070BDB4F90C3000228C
:109AA0001B062A6004D540230020336016B070BD29
:109AB0004FF480630020336016B070BD00000000DA
:109AC00001F0FF01102A2BDB10F0070F08D010F86F
:109AD000013B013A8B422DD010F0070F42B3F6D173
:109AE000F0B441EA012141EA014122F007047FF08C
:109AF00000070023F0E80256083C85EA010586EAE3
:109B0000010685FA47F5A3FA87F586FA47F6A5FA1E
